{
  "_format": "hh-sol-artifact-1",
  "contractName": "HarpocratesBilling",
  "sourceName": "contracts/Billing.sol",
  "abi": [
    {
      "inputs": [
        {
          "internalType": "address",
          "name": "_billingRole",
          "type": "address"
        }
      ],
      "stateMutability": "nonpayable",
      "type": "constructor"
    },
    {
      "anonymous": false,
      "inputs": [
        {
          "indexed": true,
          "internalType": "address",
          "name": "newBilling",
          "type": "address"
        }
      ],
      "name": "BillingRoleUpdated",
      "type": "event"
    },
    {
      "anonymous": false,
      "inputs": [
        {
          "indexed": true,
          "internalType": "bytes32",
          "name": "modelId",
          "type": "bytes32"
        },
        {
          "indexed": false,
          "internalType": "uint256",
          "name": "pricePerTokenWei",
          "type": "uint256"
        }
      ],
      "name": "PriceUpdated",
      "type": "event"
    },
    {
      "anonymous": false,
      "inputs": [
        {
          "indexed": true,
          "internalType": "address",
          "name": "user",
          "type": "address"
        },
        {
          "indexed": true,
          "internalType": "bytes32",
          "name": "modelId",
          "type": "bytes32"
        },
        {
          "indexed": false,
          "internalType": "uint256",
          "name": "inputTokens",
          "type": "uint256"
        },
        {
          "indexed": false,
          "internalType": "uint256",
          "name": "outputTokens",
          "type": "uint256"
        },
        {
          "indexed": false,
          "internalType": "uint256",
          "name": "costWei",
          "type": "uint256"
        },
        {
          "indexed": false,
          "internalType": "bytes32",
          "name": "usageHash",
          "type": "bytes32"
        }
      ],
      "name": "UserCharged",
      "type": "event"
    },
    {
      "anonymous": false,
      "inputs": [
        {
          "indexed": true,
          "internalType": "address",
          "name": "user",
          "type": "address"
        },
        {
          "indexed": false,
          "internalType": "uint256",
          "name": "amount",
          "type": "uint256"
        }
      ],
      "name": "UserFunded",
      "type": "event"
    },
    {
      "anonymous": false,
      "inputs": [
        {
          "indexed": true,
          "internalType": "address",
          "name": "newVerifier",
          "type": "address"
        }
      ],
      "name": "VerifierUpdated",
      "type": "event"
    },
    {
      "anonymous": false,
      "inputs": [
        {
          "indexed": true,
          "internalType": "address",
          "name": "user",
          "type": "address"
        },
        {
          "indexed": false,
          "internalType": "uint256",
          "name": "amount",
          "type": "uint256"
        }
      ],
      "name": "Withdrawn",
      "type": "event"
    },
    {
      "anonymous": false,
      "inputs": [
        {
          "indexed": false,
          "internalType": "bool",
          "name": "enabled",
          "type": "bool"
        }
      ],
      "name": "ZkOnlyUpdated",
      "type": "event"
    },
    {
      "inputs": [
        {
          "internalType": "address",
          "name": "",
          "type": "address"
        }
      ],
      "name": "balances",
      "outputs": [
        {
          "internalType": "uint256",
          "name": "",
          "type": "uint256"
        }
      ],
      "stateMutability": "view",
      "type": "function"
    },
    {
      "inputs": [],
      "name": "billingRole",
      "outputs": [
        {
          "internalType": "address",
          "name": "",
          "type": "address"
        }
      ],
      "stateMutability": "view",
      "type": "function"
    },
    {
      "inputs": [
        {
          "internalType": "address",
          "name": "user",
          "type": "address"
        },
        {
          "internalType": "bytes32",
          "name": "modelId",
          "type": "bytes32"
        },
        {
          "internalType": "uint256",
          "name": "inputTokens",
          "type": "uint256"
        },
        {
          "internalType": "uint256",
          "name": "outputTokens",
          "type": "uint256"
        },
        {
          "internalType": "bytes32",
          "name": "usageHash",
          "type": "bytes32"
        }
      ],
      "name": "charge",
      "outputs": [],
      "stateMutability": "nonpayable",
      "type": "function"
    },
    {
      "inputs": [
        {
          "internalType": "address",
          "name": "user",
          "type": "address"
        },
        {
          "internalType": "bytes32",
          "name": "modelId",
          "type": "bytes32"
        },
        {
          "internalType": "uint256",
          "name": "pricePerTokenWeiInput",
          "type": "uint256"
        },
        {
          "internalType": "uint256",
          "name": "costWei",
          "type": "uint256"
        },
        {
          "internalType": "bytes32",
          "name": "usageHash",
          "type": "bytes32"
        },
        {
          "internalType": "bytes32",
          "name": "nullifier",
          "type": "bytes32"
        },
        {
          "internalType": "uint256[2]",
          "name": "a",
          "type": "uint256[2]"
        },
        {
          "internalType": "uint256[2][2]",
          "name": "b",
          "type": "uint256[2][2]"
        },
        {
          "internalType": "uint256[2]",
          "name": "c",
          "type": "uint256[2]"
        }
      ],
      "name": "chargeWithProof",
      "outputs": [],
      "stateMutability": "nonpayable",
      "type": "function"
    },
    {
      "inputs": [],
      "name": "fund",
      "outputs": [],
      "stateMutability": "payable",
      "type": "function"
    },
    {
      "inputs": [
        {
          "internalType": "bytes32",
          "name": "",
          "type": "bytes32"
        }
      ],
      "name": "nullifierUsed",
      "outputs": [
        {
          "internalType": "bool",
          "name": "",
          "type": "bool"
        }
      ],
      "stateMutability": "view",
      "type": "function"
    },
    {
      "inputs": [],
      "name": "owner",
      "outputs": [
        {
          "internalType": "address",
          "name": "",
          "type": "address"
        }
      ],
      "stateMutability": "view",
      "type": "function"
    },
    {
      "inputs": [
        {
          "internalType": "bytes32",
          "name": "",
          "type": "bytes32"
        }
      ],
      "name": "pricePerTokenWei",
      "outputs": [
        {
          "internalType": "uint256",
          "name": "",
          "type": "uint256"
        }
      ],
      "stateMutability": "view",
      "type": "function"
    },
    {
      "inputs": [
        {
          "internalType": "address",
          "name": "_billingRole",
          "type": "address"
        }
      ],
      "name": "setBillingRole",
      "outputs": [],
      "stateMutability": "nonpayable",
      "type": "function"
    },
    {
      "inputs": [
        {
          "internalType": "bytes32",
          "name": "modelId",
          "type": "bytes32"
        },
        {
          "internalType": "uint256",
          "name": "priceWei",
          "type": "uint256"
        }
      ],
      "name": "setPrice",
      "outputs": [],
      "stateMutability": "nonpayable",
      "type": "function"
    },
    {
      "inputs": [
        {
          "internalType": "address",
          "name": "v",
          "type": "address"
        }
      ],
      "name": "setVerifier",
      "outputs": [],
      "stateMutability": "nonpayable",
      "type": "function"
    },
    {
      "inputs": [
        {
          "internalType": "bool",
          "name": "enabled",
          "type": "bool"
        }
      ],
      "name": "setZkOnly",
      "outputs": [],
      "stateMutability": "nonpayable",
      "type": "function"
    },
    {
      "inputs": [],
      "name": "verifier",
      "outputs": [
        {
          "internalType": "address",
          "name": "",
          "type": "address"
        }
      ],
      "stateMutability": "view",
      "type": "function"
    },
    {
      "inputs": [
        {
          "internalType": "uint256",
          "name": "amount",
          "type": "uint256"
        }
      ],
      "name": "withdraw",
      "outputs": [],
      "stateMutability": "nonpayable",
      "type": "function"
    },
    {
      "inputs": [],
      "name": "zkOnly",
      "outputs": [
        {
          "internalType": "bool",
          "name": "",
          "type": "bool"
        }
      ],
      "stateMutability": "view",
      "type": "function"
    }
  ],
  "bytecode": "0x608060405234801561001057600080fd5b50604051610fe8380380610fe883398101604081905261002f91610062565b60008054336001600160a01b031991821617909155600180549091166001600160a01b0392909216919091179055610092565b60006020828403121561007457600080fd5b81516001600160a01b038116811461008b57600080fd5b9392505050565b610f47806100a16000396000f3fe6080604052600436106100e85760003560e01c80635437988d1161008a578063b94d0a3b11610059578063b94d0a3b1461029c578063c136c6bc146102bc578063d209ec7c146102dd578063f307afe2146102fd57600080fd5b80635437988d146102145780637ecf686d146102345780638da5cb5b14610274578063b60d42881461029457600080fd5b806326d43a9d116100c657806326d43a9d1461016f57806327e235e31461018f5780632b7ac3f3146101bc5780632e1a7d4d146101f457600080fd5b80630fbc018d146100ed57806310d8d74d1461012d5780631c304aac1461014f575b600080fd5b3480156100f957600080fd5b5061011a610108366004610c81565b60046020526000908152604090205481565b6040519081526020015b60405180910390f35b34801561013957600080fd5b5061014d610148366004610c9a565b61031d565b005b34801561015b57600080fd5b5061014d61016a366004610cef565b6103a1565b34801561017b57600080fd5b5061014d61018a366004610d7e565b6106a5565b34801561019b57600080fd5b5061011a6101aa366004610d7e565b60036020526000908152604090205481565b3480156101c857600080fd5b506002546101dc906001600160a01b031681565b6040516001600160a01b039091168152602001610124565b34801561020057600080fd5b5061014d61020f366004610c81565b610719565b34801561022057600080fd5b5061014d61022f366004610d7e565b610847565b34801561024057600080fd5b5061026461024f366004610c81565b60056020526000908152604090205460ff1681565b6040519015158152602001610124565b34801561028057600080fd5b506000546101dc906001600160a01b031681565b61014d6108bb565b3480156102a857600080fd5b5061014d6102b7366004610db1565b610951565b3480156102c857600080fd5b5060025461026490600160a01b900460ff1681565b3480156102e957600080fd5b506001546101dc906001600160a01b031681565b34801561030957600080fd5b5061014d610318366004610dce565b6109d3565b6000546001600160a01b031633146103505760405162461bcd60e51b815260040161034790610e10565b60405180910390fd5b600082815260046020526040908190208290555182907f46eec4e0eeeef5830de3472bb39db7e52b1c809286dc87c4b85b20e003cc70c3906103959084815260200190565b60405180910390a25050565b6001546001600160a01b031633146103e95760405162461bcd60e51b815260206004820152600b60248201526a6e6f742062696c6c696e6760a81b6044820152606401610347565b60008881526004602052604090205487146104375760405162461bcd60e51b815260206004820152600e60248201526d0e0e4d2c6ca40dad2e6dac2e8c6d60931b6044820152606401610347565b60008481526005602052604090205460ff16156104875760405162461bcd60e51b815260206004820152600e60248201526d1b9d5b1b1a599a595c881d5cd95960921b6044820152606401610347565b6002546001600160a01b03166104d25760405162461bcd60e51b815260206004820152601060248201526f1d995c9a599a595c881b9bdd081cd95d60821b6044820152606401610347565b60006104e28a8a8a8a8a8a610bb3565b60025460405163465d607d60e11b81529192506001600160a01b031690638cbac0fa90610519908790879087908790600401610e33565b602060405180830381865afa158015610536573d6000803e3d6000fd5b505050506040513d601f19601f8201168201806040525081019061055a9190610ea1565b6105965760405162461bcd60e51b815260206004820152600d60248201526c34b73b30b634b210383937b7b360991b6044820152606401610347565b6001600160a01b038a166000908152600360205260409020548711156105f55760405162461bcd60e51b8152602060048201526014602482015273696e73756666696369656e742062616c616e636560601b6044820152606401610347565b6001600160a01b038a166000908152600360205260408120805489929061061d908490610ed4565b9091555050600085815260056020526040808220805460ff19166001179055518a916001600160a01b038d16917f555d11680007234168334083712c4eccc50a1126a9baef77a02fea0347e6bcd6916106919181908d908d9093845260208401929092526040830152606082015260800190565b60405180910390a350505050505050505050565b6000546001600160a01b031633146106cf5760405162461bcd60e51b815260040161034790610e10565b600180546001600160a01b0319166001600160a01b0383169081179091556040517f886d8938236ea945eeec011df6bdeda22b4fc6760f62383ff5a619c2c6d708b790600090a250565b336000908152600360205260409020548111156107675760405162461bcd60e51b815260206004820152600c60248201526b1a5b9cdd59999a58da595b9d60a21b6044820152606401610347565b3360009081526003602052604081208054839290610786908490610ed4565b9091555050604051600090339083908381818185875af1925050503d80600081146107cd576040519150601f19603f3d011682016040523d82523d6000602084013e6107d2565b606091505b50509050806108155760405162461bcd60e51b815260206004820152600f60248201526e1d1c985b9cd9995c8819985a5b1959608a1b6044820152606401610347565b60405182815233907f7084f5476618d8e60b11ef0d7d3f06914655adb8793e28ff7f018d4c76d505d590602001610395565b6000546001600160a01b031633146108715760405162461bcd60e51b815260040161034790610e10565b600280546001600160a01b0319166001600160a01b0383169081179091556040517fd24015cc99cc1700cafca3042840a1d8ac1e3964fd2e0e37ea29c654056ee32790600090a250565b600034116108f65760405162461bcd60e51b81526020600482015260086024820152676e6f2076616c756560c01b6044820152606401610347565b3360009081526003602052604081208054349290610915908490610ee7565b909155505060405134815233907f8be586f8e89ad09244ec85b13dd26a9c9406d6220b8fa2971407fc4f05b336fe9060200160405180910390a2565b6000546001600160a01b0316331461097b5760405162461bcd60e51b815260040161034790610e10565b60028054821515600160a01b0260ff60a01b199091161790556040517f3960e469c6844590bc6ac8a803f9e656ae00a3d6869b7a21dd4a98bba7d306ee906109c890831515815260200190565b60405180910390a150565b6001546001600160a01b03163314610a1b5760405162461bcd60e51b815260206004820152600b60248201526a6e6f742062696c6c696e6760a81b6044820152606401610347565b600254600160a01b900460ff1615610a5f5760405162461bcd60e51b81526020600482015260076024820152667a6b206f6e6c7960c81b6044820152606401610347565b60008481526004602052604090205480610aab5760405162461bcd60e51b815260206004820152600d60248201526c1c1c9a58d9481b9bdd081cd95d609a1b6044820152606401610347565b6000610ab78486610ee7565b90506000610ac58383610efa565b6001600160a01b038916600090815260036020526040902054909150811115610b275760405162461bcd60e51b8152602060048201526014602482015273696e73756666696369656e742062616c616e636560601b6044820152606401610347565b6001600160a01b03881660009081526003602052604081208054839290610b4f908490610ed4565b909155505060408051878152602081018790529081018290526060810185905287906001600160a01b038a16907f555d11680007234168334083712c4eccc50a1126a9baef77a02fea0347e6bcd69060800160405180910390a35050505050505050565b610bbb610c62565b6fffffffffffffffffffffffffffffffff87811690608089811c63ffffffff1691898116918a811c918a8116918b811c918b8116918c811c918c8116918d811c918d16908d901c610c0a610c62565b9b8c5260208c019a909a5260408b019890985260608a0196909652608089019490945260a088019290925260c087015260e0860152610100850152610120840152610140830152610160820152979650505050505050565b604051806101800160405280600c906020820280368337509192915050565b600060208284031215610c9357600080fd5b5035919050565b60008060408385031215610cad57600080fd5b50508035926020909101359150565b80356001600160a01b0381168114610cd357600080fd5b919050565b8060408101831015610ce957600080fd5b92915050565b60008060008060008060008060006101c08a8c031215610d0e57600080fd5b610d178a610cbc565b985060208a0135975060408a0135965060608a0135955060808a0135945060a08a01359350610d498b60c08c01610cd8565b92506101808a018b811115610d5d57600080fd5b6101008b019250610d6e8c82610cd8565b9150509295985092959850929598565b600060208284031215610d9057600080fd5b610d9982610cbc565b9392505050565b8015158114610dae57600080fd5b50565b600060208284031215610dc357600080fd5b8135610d9981610da0565b600080600080600060a08688031215610de657600080fd5b610def86610cbc565b97602087013597506040870135966060810135965060800135945092505050565b6020808252600990820152683737ba1037bbb732b960b91b604082015260600190565b61028081016040808784378083018660005b6002811015610e6257838284379183019190830190600101610e45565b505050808560c08501375061010082018360005b600c811015610e95578151835260209283019290910190600101610e76565b50505095945050505050565b600060208284031215610eb357600080fd5b8151610d9981610da0565b634e487b7160e01b600052601160045260246000fd5b81810381811115610ce957610ce9610ebe565b80820180821115610ce957610ce9610ebe565b8082028115828204841417610ce957610ce9610ebe56fea2646970667358221220efc70b802e5109fbe7be09bbb848e3a6b33561439a0f27f616aa477f74831b7664736f6c63430008180033",
  "linkReferences": {},
  "deployedLinkReferences": {}
}