{
  "_format": "hh-sol-artifact-1",
  "contractName": "HarpocratesBilling",
  "sourceName": "contracts/Billing.sol",
  "abi": [
    {
      "inputs": [
        {
          "internalType": "address",
          "name": "_billingRole",
          "type": "address"
        }
      ],
      "stateMutability": "nonpayable",
      "type": "constructor"
    },
    {
      "anonymous": false,
      "inputs": [
        {
          "indexed": true,
          "internalType": "address",
          "name": "newBilling",
          "type": "address"
        }
      ],
      "name": "BillingRoleUpdated",
      "type": "event"
    },
    {
      "anonymous": false,
      "inputs": [
        {
          "indexed": true,
          "internalType": "bytes32",
          "name": "modelId",
          "type": "bytes32"
        },
        {
          "indexed": false,
          "internalType": "uint256",
          "name": "pricePerTokenWei",
          "type": "uint256"
        }
      ],
      "name": "PriceUpdated",
      "type": "event"
    },
    {
      "anonymous": false,
      "inputs": [
        {
          "indexed": true,
          "internalType": "address",
          "name": "user",
          "type": "address"
        },
        {
          "indexed": true,
          "internalType": "bytes32",
          "name": "modelId",
          "type": "bytes32"
        },
        {
          "indexed": false,
          "internalType": "uint256",
          "name": "inputTokens",
          "type": "uint256"
        },
        {
          "indexed": false,
          "internalType": "uint256",
          "name": "outputTokens",
          "type": "uint256"
        },
        {
          "indexed": false,
          "internalType": "uint256",
          "name": "costWei",
          "type": "uint256"
        },
        {
          "indexed": false,
          "internalType": "bytes32",
          "name": "usageHash",
          "type": "bytes32"
        }
      ],
      "name": "UserCharged",
      "type": "event"
    },
    {
      "anonymous": false,
      "inputs": [
        {
          "indexed": true,
          "internalType": "address",
          "name": "user",
          "type": "address"
        },
        {
          "indexed": false,
          "internalType": "uint256",
          "name": "amount",
          "type": "uint256"
        }
      ],
      "name": "UserFunded",
      "type": "event"
    },
    {
      "anonymous": false,
      "inputs": [
        {
          "indexed": true,
          "internalType": "address",
          "name": "user",
          "type": "address"
        },
        {
          "indexed": false,
          "internalType": "uint256",
          "name": "amount",
          "type": "uint256"
        }
      ],
      "name": "Withdrawn",
      "type": "event"
    },
    {
      "inputs": [
        {
          "internalType": "address",
          "name": "",
          "type": "address"
        }
      ],
      "name": "balances",
      "outputs": [
        {
          "internalType": "uint256",
          "name": "",
          "type": "uint256"
        }
      ],
      "stateMutability": "view",
      "type": "function"
    },
    {
      "inputs": [],
      "name": "billingRole",
      "outputs": [
        {
          "internalType": "address",
          "name": "",
          "type": "address"
        }
      ],
      "stateMutability": "view",
      "type": "function"
    },
    {
      "inputs": [
        {
          "internalType": "address",
          "name": "user",
          "type": "address"
        },
        {
          "internalType": "bytes32",
          "name": "modelId",
          "type": "bytes32"
        },
        {
          "internalType": "uint256",
          "name": "inputTokens",
          "type": "uint256"
        },
        {
          "internalType": "uint256",
          "name": "outputTokens",
          "type": "uint256"
        },
        {
          "internalType": "bytes32",
          "name": "usageHash",
          "type": "bytes32"
        }
      ],
      "name": "charge",
      "outputs": [],
      "stateMutability": "nonpayable",
      "type": "function"
    },
    {
      "inputs": [],
      "name": "fund",
      "outputs": [],
      "stateMutability": "payable",
      "type": "function"
    },
    {
      "inputs": [],
      "name": "owner",
      "outputs": [
        {
          "internalType": "address",
          "name": "",
          "type": "address"
        }
      ],
      "stateMutability": "view",
      "type": "function"
    },
    {
      "inputs": [
        {
          "internalType": "bytes32",
          "name": "",
          "type": "bytes32"
        }
      ],
      "name": "pricePerTokenWei",
      "outputs": [
        {
          "internalType": "uint256",
          "name": "",
          "type": "uint256"
        }
      ],
      "stateMutability": "view",
      "type": "function"
    },
    {
      "inputs": [
        {
          "internalType": "address",
          "name": "_billingRole",
          "type": "address"
        }
      ],
      "name": "setBillingRole",
      "outputs": [],
      "stateMutability": "nonpayable",
      "type": "function"
    },
    {
      "inputs": [
        {
          "internalType": "bytes32",
          "name": "modelId",
          "type": "bytes32"
        },
        {
          "internalType": "uint256",
          "name": "priceWei",
          "type": "uint256"
        }
      ],
      "name": "setPrice",
      "outputs": [],
      "stateMutability": "nonpayable",
      "type": "function"
    },
    {
      "inputs": [
        {
          "internalType": "uint256",
          "name": "amount",
          "type": "uint256"
        }
      ],
      "name": "withdraw",
      "outputs": [],
      "stateMutability": "nonpayable",
      "type": "function"
    }
  ],
  "bytecode": "0x608060405234801561001057600080fd5b5060405161085138038061085183398101604081905261002f91610062565b60008054336001600160a01b031991821617909155600180549091166001600160a01b0392909216919091179055610092565b60006020828403121561007457600080fd5b81516001600160a01b038116811461008b57600080fd5b9392505050565b6107b0806100a16000396000f3fe6080604052600436106100865760003560e01c80632e1a7d4d116100595780632e1a7d4d1461013a5780638da5cb5b1461015a578063b60d428814610192578063d209ec7c1461019a578063f307afe2146101ba57600080fd5b80630fbc018d1461008b57806310d8d74d146100cb57806326d43a9d146100ed57806327e235e31461010d575b600080fd5b34801561009757600080fd5b506100b86100a6366004610666565b60036020526000908152604090205481565b6040519081526020015b60405180910390f35b3480156100d757600080fd5b506100eb6100e636600461067f565b6101da565b005b3480156100f957600080fd5b506100eb6101083660046106bd565b610276565b34801561011957600080fd5b506100b86101283660046106bd565b60026020526000908152604090205481565b34801561014657600080fd5b506100eb610155366004610666565b610306565b34801561016657600080fd5b5060005461017a906001600160a01b031681565b6040516001600160a01b0390911681526020016100c2565b6100eb610434565b3480156101a657600080fd5b5060015461017a906001600160a01b031681565b3480156101c657600080fd5b506100eb6101d53660046106df565b6104ca565b6000546001600160a01b031633146102255760405162461bcd60e51b81526020600482015260096024820152683737ba1037bbb732b960b91b60448201526064015b60405180910390fd5b600082815260036020526040908190208290555182907f46eec4e0eeeef5830de3472bb39db7e52b1c809286dc87c4b85b20e003cc70c39061026a9084815260200190565b60405180910390a25050565b6000546001600160a01b031633146102bc5760405162461bcd60e51b81526020600482015260096024820152683737ba1037bbb732b960b91b604482015260640161021c565b600180546001600160a01b0319166001600160a01b0383169081179091556040517f886d8938236ea945eeec011df6bdeda22b4fc6760f62383ff5a619c2c6d708b790600090a250565b336000908152600260205260409020548111156103545760405162461bcd60e51b815260206004820152600c60248201526b1a5b9cdd59999a58da595b9d60a21b604482015260640161021c565b3360009081526002602052604081208054839290610373908490610737565b9091555050604051600090339083908381818185875af1925050503d80600081146103ba576040519150601f19603f3d011682016040523d82523d6000602084013e6103bf565b606091505b50509050806104025760405162461bcd60e51b815260206004820152600f60248201526e1d1c985b9cd9995c8819985a5b1959608a1b604482015260640161021c565b60405182815233907f7084f5476618d8e60b11ef0d7d3f06914655adb8793e28ff7f018d4c76d505d59060200161026a565b6000341161046f5760405162461bcd60e51b81526020600482015260086024820152676e6f2076616c756560c01b604482015260640161021c565b336000908152600260205260408120805434929061048e908490610750565b909155505060405134815233907f8be586f8e89ad09244ec85b13dd26a9c9406d6220b8fa2971407fc4f05b336fe9060200160405180910390a2565b6001546001600160a01b031633146105125760405162461bcd60e51b815260206004820152600b60248201526a6e6f742062696c6c696e6760a81b604482015260640161021c565b6000848152600360205260409020548061055e5760405162461bcd60e51b815260206004820152600d60248201526c1c1c9a58d9481b9bdd081cd95d609a1b604482015260640161021c565b600061056a8486610750565b905060006105788383610763565b6001600160a01b0389166000908152600260205260409020549091508111156105da5760405162461bcd60e51b8152602060048201526014602482015273696e73756666696369656e742062616c616e636560601b604482015260640161021c565b6001600160a01b03881660009081526002602052604081208054839290610602908490610737565b909155505060408051878152602081018790529081018290526060810185905287906001600160a01b038a16907f555d11680007234168334083712c4eccc50a1126a9baef77a02fea0347e6bcd69060800160405180910390a35050505050505050565b60006020828403121561067857600080fd5b5035919050565b6000806040838503121561069257600080fd5b50508035926020909101359150565b80356001600160a01b03811681146106b857600080fd5b919050565b6000602082840312156106cf57600080fd5b6106d8826106a1565b9392505050565b600080600080600060a086880312156106f757600080fd5b610700866106a1565b97602087013597506040870135966060810135965060800135945092505050565b634e487b7160e01b600052601160045260246000fd5b8181038181111561074a5761074a610721565b92915050565b8082018082111561074a5761074a610721565b808202811582820484141761074a5761074a61072156fea26469706673582212204b463ef2a89f4a263cb56bef555c6a9362b0073d24d903ad8375467e9f5b556864736f6c63430008180033",
  "linkReferences": {},
  "deployedLinkReferences": {}
}