{
  "_format": "hh-sol-artifact-1",
  "contractName": "HarpocratesBilling",
  "sourceName": "contracts/Billing.sol",
  "abi": [
    {
      "inputs": [
        {
          "internalType": "address",
          "name": "_billingRole",
          "type": "address"
        }
      ],
      "stateMutability": "nonpayable",
      "type": "constructor"
    },
    {
      "anonymous": false,
      "inputs": [
        {
          "indexed": true,
          "internalType": "address",
          "name": "newBilling",
          "type": "address"
        }
      ],
      "name": "BillingRoleUpdated",
      "type": "event"
    },
    {
      "anonymous": false,
      "inputs": [
        {
          "indexed": true,
          "internalType": "bytes32",
          "name": "modelId",
          "type": "bytes32"
        },
        {
          "indexed": false,
          "internalType": "uint256",
          "name": "pricePerTokenWei",
          "type": "uint256"
        }
      ],
      "name": "PriceUpdated",
      "type": "event"
    },
    {
      "anonymous": false,
      "inputs": [
        {
          "indexed": true,
          "internalType": "address",
          "name": "user",
          "type": "address"
        },
        {
          "indexed": true,
          "internalType": "bytes32",
          "name": "modelId",
          "type": "bytes32"
        },
        {
          "indexed": false,
          "internalType": "uint256",
          "name": "inputTokens",
          "type": "uint256"
        },
        {
          "indexed": false,
          "internalType": "uint256",
          "name": "outputTokens",
          "type": "uint256"
        },
        {
          "indexed": false,
          "internalType": "uint256",
          "name": "costWei",
          "type": "uint256"
        },
        {
          "indexed": false,
          "internalType": "bytes32",
          "name": "usageHash",
          "type": "bytes32"
        }
      ],
      "name": "UserCharged",
      "type": "event"
    },
    {
      "anonymous": false,
      "inputs": [
        {
          "indexed": true,
          "internalType": "address",
          "name": "user",
          "type": "address"
        },
        {
          "indexed": false,
          "internalType": "uint256",
          "name": "amount",
          "type": "uint256"
        }
      ],
      "name": "UserFunded",
      "type": "event"
    },
    {
      "anonymous": false,
      "inputs": [
        {
          "indexed": true,
          "internalType": "address",
          "name": "newVerifier",
          "type": "address"
        }
      ],
      "name": "VerifierUpdated",
      "type": "event"
    },
    {
      "anonymous": false,
      "inputs": [
        {
          "indexed": true,
          "internalType": "address",
          "name": "user",
          "type": "address"
        },
        {
          "indexed": false,
          "internalType": "uint256",
          "name": "amount",
          "type": "uint256"
        }
      ],
      "name": "Withdrawn",
      "type": "event"
    },
    {
      "anonymous": false,
      "inputs": [
        {
          "indexed": false,
          "internalType": "bool",
          "name": "enabled",
          "type": "bool"
        }
      ],
      "name": "ZkOnlyUpdated",
      "type": "event"
    },
    {
      "inputs": [
        {
          "internalType": "address",
          "name": "",
          "type": "address"
        }
      ],
      "name": "balances",
      "outputs": [
        {
          "internalType": "uint256",
          "name": "",
          "type": "uint256"
        }
      ],
      "stateMutability": "view",
      "type": "function"
    },
    {
      "inputs": [],
      "name": "billingRole",
      "outputs": [
        {
          "internalType": "address",
          "name": "",
          "type": "address"
        }
      ],
      "stateMutability": "view",
      "type": "function"
    },
    {
      "inputs": [
        {
          "internalType": "address",
          "name": "user",
          "type": "address"
        },
        {
          "internalType": "bytes32",
          "name": "modelId",
          "type": "bytes32"
        },
        {
          "internalType": "uint256",
          "name": "inputTokens",
          "type": "uint256"
        },
        {
          "internalType": "uint256",
          "name": "outputTokens",
          "type": "uint256"
        },
        {
          "internalType": "bytes32",
          "name": "usageHash",
          "type": "bytes32"
        }
      ],
      "name": "charge",
      "outputs": [],
      "stateMutability": "nonpayable",
      "type": "function"
    },
    {
      "inputs": [
        {
          "internalType": "address",
          "name": "user",
          "type": "address"
        },
        {
          "internalType": "bytes32",
          "name": "modelId",
          "type": "bytes32"
        },
        {
          "internalType": "uint256",
          "name": "pricePerTokenWeiInput",
          "type": "uint256"
        },
        {
          "internalType": "uint256",
          "name": "costWei",
          "type": "uint256"
        },
        {
          "internalType": "bytes32",
          "name": "usageHash",
          "type": "bytes32"
        },
        {
          "internalType": "bytes32",
          "name": "nullifier",
          "type": "bytes32"
        },
        {
          "internalType": "uint256[2]",
          "name": "a",
          "type": "uint256[2]"
        },
        {
          "internalType": "uint256[2][2]",
          "name": "b",
          "type": "uint256[2][2]"
        },
        {
          "internalType": "uint256[2]",
          "name": "c",
          "type": "uint256[2]"
        }
      ],
      "name": "chargeWithProof",
      "outputs": [],
      "stateMutability": "nonpayable",
      "type": "function"
    },
    {
      "inputs": [],
      "name": "fund",
      "outputs": [],
      "stateMutability": "payable",
      "type": "function"
    },
    {
      "inputs": [
        {
          "internalType": "bytes32",
          "name": "",
          "type": "bytes32"
        }
      ],
      "name": "nullifierUsed",
      "outputs": [
        {
          "internalType": "bool",
          "name": "",
          "type": "bool"
        }
      ],
      "stateMutability": "view",
      "type": "function"
    },
    {
      "inputs": [],
      "name": "owner",
      "outputs": [
        {
          "internalType": "address",
          "name": "",
          "type": "address"
        }
      ],
      "stateMutability": "view",
      "type": "function"
    },
    {
      "inputs": [
        {
          "internalType": "bytes32",
          "name": "",
          "type": "bytes32"
        }
      ],
      "name": "pricePerTokenWei",
      "outputs": [
        {
          "internalType": "uint256",
          "name": "",
          "type": "uint256"
        }
      ],
      "stateMutability": "view",
      "type": "function"
    },
    {
      "inputs": [
        {
          "internalType": "address",
          "name": "_billingRole",
          "type": "address"
        }
      ],
      "name": "setBillingRole",
      "outputs": [],
      "stateMutability": "nonpayable",
      "type": "function"
    },
    {
      "inputs": [
        {
          "internalType": "bytes32",
          "name": "modelId",
          "type": "bytes32"
        },
        {
          "internalType": "uint256",
          "name": "priceWei",
          "type": "uint256"
        }
      ],
      "name": "setPrice",
      "outputs": [],
      "stateMutability": "nonpayable",
      "type": "function"
    },
    {
      "inputs": [
        {
          "internalType": "address",
          "name": "v",
          "type": "address"
        }
      ],
      "name": "setVerifier",
      "outputs": [],
      "stateMutability": "nonpayable",
      "type": "function"
    },
    {
      "inputs": [
        {
          "internalType": "bool",
          "name": "enabled",
          "type": "bool"
        }
      ],
      "name": "setZkOnly",
      "outputs": [],
      "stateMutability": "nonpayable",
      "type": "function"
    },
    {
      "inputs": [],
      "name": "verifier",
      "outputs": [
        {
          "internalType": "address",
          "name": "",
          "type": "address"
        }
      ],
      "stateMutability": "view",
      "type": "function"
    },
    {
      "inputs": [
        {
          "internalType": "uint256",
          "name": "amount",
          "type": "uint256"
        }
      ],
      "name": "withdraw",
      "outputs": [],
      "stateMutability": "nonpayable",
      "type": "function"
    },
    {
      "inputs": [],
      "name": "zkOnly",
      "outputs": [
        {
          "internalType": "bool",
          "name": "",
          "type": "bool"
        }
      ],
      "stateMutability": "view",
      "type": "function"
    }
  ],
  "bytecode": "0x608060405234801561001057600080fd5b5060405161115138038061115183398101604081905261002f91610062565b60008054336001600160a01b031991821617909155600180549091166001600160a01b0392909216919091179055610092565b60006020828403121561007457600080fd5b81516001600160a01b038116811461008b57600080fd5b9392505050565b6110b0806100a16000396000f3fe6080604052600436106100e85760003560e01c80635437988d1161008a578063b94d0a3b11610059578063b94d0a3b1461029c578063c136c6bc146102bc578063d209ec7c146102dd578063f307afe2146102fd57600080fd5b80635437988d146102145780637ecf686d146102345780638da5cb5b14610274578063b60d42881461029457600080fd5b806326d43a9d116100c657806326d43a9d1461016f57806327e235e31461018f5780632b7ac3f3146101bc5780632e1a7d4d146101f457600080fd5b80630fbc018d146100ed57806310d8d74d1461012d5780631c304aac1461014f575b600080fd5b3480156100f957600080fd5b5061011a610108366004610dbc565b60046020526000908152604090205481565b6040519081526020015b60405180910390f35b34801561013957600080fd5b5061014d610148366004610dd5565b61031d565b005b34801561015b57600080fd5b5061014d61016a366004610e2a565b6103a1565b34801561017b57600080fd5b5061014d61018a366004610eb9565b6106a5565b34801561019b57600080fd5b5061011a6101aa366004610eb9565b60036020526000908152604090205481565b3480156101c857600080fd5b506002546101dc906001600160a01b031681565b6040516001600160a01b039091168152602001610124565b34801561020057600080fd5b5061014d61020f366004610dbc565b610719565b34801561022057600080fd5b5061014d61022f366004610eb9565b610847565b34801561024057600080fd5b5061026461024f366004610dbc565b60056020526000908152604090205460ff1681565b6040519015158152602001610124565b34801561028057600080fd5b506000546101dc906001600160a01b031681565b61014d6108bb565b3480156102a857600080fd5b5061014d6102b7366004610eec565b610951565b3480156102c857600080fd5b5060025461026490600160a01b900460ff1681565b3480156102e957600080fd5b506001546101dc906001600160a01b031681565b34801561030957600080fd5b5061014d610318366004610f09565b6109d3565b6000546001600160a01b031633146103505760405162461bcd60e51b815260040161034790610f4b565b60405180910390fd5b600082815260046020526040908190208290555182907f46eec4e0eeeef5830de3472bb39db7e52b1c809286dc87c4b85b20e003cc70c3906103959084815260200190565b60405180910390a25050565b6001546001600160a01b031633146103e95760405162461bcd60e51b815260206004820152600b60248201526a6e6f742062696c6c696e6760a81b6044820152606401610347565b60008881526004602052604090205487146104375760405162461bcd60e51b815260206004820152600e60248201526d0e0e4d2c6ca40dad2e6dac2e8c6d60931b6044820152606401610347565b60008481526005602052604090205460ff16156104875760405162461bcd60e51b815260206004820152600e60248201526d1b9d5b1b1a599a595c881d5cd95960921b6044820152606401610347565b6002546001600160a01b03166104d25760405162461bcd60e51b815260206004820152601060248201526f1d995c9a599a595c881b9bdd081cd95d60821b6044820152606401610347565b60006104e28a8a8a8a8a8a610bb3565b6002546040516361971b8760e11b81529192506001600160a01b03169063c32e370e90610519908790879087908790600401610f6e565b602060405180830381865afa158015610536573d6000803e3d6000fd5b505050506040513d601f19601f8201168201806040525081019061055a9190610ff4565b6105965760405162461bcd60e51b815260206004820152600d60248201526c34b73b30b634b210383937b7b360991b6044820152606401610347565b6001600160a01b038a166000908152600360205260409020548711156105f55760405162461bcd60e51b8152602060048201526014602482015273696e73756666696369656e742062616c616e636560601b6044820152606401610347565b6001600160a01b038a166000908152600360205260408120805489929061061d908490611027565b9091555050600085815260056020526040808220805460ff19166001179055518a916001600160a01b038d16917f555d11680007234168334083712c4eccc50a1126a9baef77a02fea0347e6bcd6916106919181908d908d9093845260208401929092526040830152606082015260800190565b60405180910390a350505050505050505050565b6000546001600160a01b031633146106cf5760405162461bcd60e51b815260040161034790610f4b565b600180546001600160a01b0319166001600160a01b0383169081179091556040517f886d8938236ea945eeec011df6bdeda22b4fc6760f62383ff5a619c2c6d708b790600090a250565b336000908152600360205260409020548111156107675760405162461bcd60e51b815260206004820152600c60248201526b1a5b9cdd59999a58da595b9d60a21b6044820152606401610347565b3360009081526003602052604081208054839290610786908490611027565b9091555050604051600090339083908381818185875af1925050503d80600081146107cd576040519150601f19603f3d011682016040523d82523d6000602084013e6107d2565b606091505b50509050806108155760405162461bcd60e51b815260206004820152600f60248201526e1d1c985b9cd9995c8819985a5b1959608a1b6044820152606401610347565b60405182815233907f7084f5476618d8e60b11ef0d7d3f06914655adb8793e28ff7f018d4c76d505d590602001610395565b6000546001600160a01b031633146108715760405162461bcd60e51b815260040161034790610f4b565b600280546001600160a01b0319166001600160a01b0383169081179091556040517fd24015cc99cc1700cafca3042840a1d8ac1e3964fd2e0e37ea29c654056ee32790600090a250565b600034116108f65760405162461bcd60e51b81526020600482015260086024820152676e6f2076616c756560c01b6044820152606401610347565b336000908152600360205260408120805434929061091590849061103a565b909155505060405134815233907f8be586f8e89ad09244ec85b13dd26a9c9406d6220b8fa2971407fc4f05b336fe9060200160405180910390a2565b6000546001600160a01b0316331461097b5760405162461bcd60e51b815260040161034790610f4b565b60028054821515600160a01b0260ff60a01b199091161790556040517f3960e469c6844590bc6ac8a803f9e656ae00a3d6869b7a21dd4a98bba7d306ee906109c890831515815260200190565b60405180910390a150565b6001546001600160a01b03163314610a1b5760405162461bcd60e51b815260206004820152600b60248201526a6e6f742062696c6c696e6760a81b6044820152606401610347565b600254600160a01b900460ff1615610a5f5760405162461bcd60e51b81526020600482015260076024820152667a6b206f6e6c7960c81b6044820152606401610347565b60008481526004602052604090205480610aab5760405162461bcd60e51b815260206004820152600d60248201526c1c1c9a58d9481b9bdd081cd95d609a1b6044820152606401610347565b6000610ab7848661103a565b90506000610ac5838361104d565b6001600160a01b038916600090815260036020526040902054909150811115610b275760405162461bcd60e51b8152602060048201526014602482015273696e73756666696369656e742062616c616e636560601b6044820152606401610347565b6001600160a01b03881660009081526003602052604081208054839290610b4f908490611027565b909155505060408051878152602081018790529081018290526060810185905287906001600160a01b038a16907f555d11680007234168334083712c4eccc50a1126a9baef77a02fea0347e6bcd69060800160405180910390a35050505050505050565b60408051600c8082526101a082019092526060916fffffffffffffffffffffffffffffffff8981169260808b811c63ffffffff16938b8416938c831c938c8216938d811c938d8416938e831c938e8216938f811c93928f1692908f901c9160009160208201610180803683370190505090508c81600081518110610c3957610c39611064565b6020026020010181815250508b81600181518110610c5957610c59611064565b6020026020010181815250508a81600281518110610c7957610c79611064565b6020026020010181815250508981600381518110610c9957610c99611064565b6020026020010181815250508881600481518110610cb957610cb9611064565b6020026020010181815250508781600581518110610cd957610cd9611064565b6020026020010181815250508681600681518110610cf957610cf9611064565b6020026020010181815250508581600781518110610d1957610d19611064565b6020026020010181815250508481600881518110610d3957610d39611064565b6020026020010181815250508381600981518110610d5957610d59611064565b6020026020010181815250508281600a81518110610d7957610d79611064565b6020026020010181815250508181600b81518110610d9957610d99611064565b60209081029190910101529c505050505050505050505050509695505050505050565b600060208284031215610dce57600080fd5b5035919050565b60008060408385031215610de857600080fd5b50508035926020909101359150565b80356001600160a01b0381168114610e0e57600080fd5b919050565b8060408101831015610e2457600080fd5b92915050565b60008060008060008060008060006101c08a8c031215610e4957600080fd5b610e528a610df7565b985060208a0135975060408a0135965060608a0135955060808a0135945060a08a01359350610e848b60c08c01610e13565b92506101808a018b811115610e9857600080fd5b6101008b019250610ea98c82610e13565b9150509295985092959850929598565b600060208284031215610ecb57600080fd5b610ed482610df7565b9392505050565b8015158114610ee957600080fd5b50565b600060208284031215610efe57600080fd5b8135610ed481610edb565b600080600080600060a08688031215610f2157600080fd5b610f2a86610df7565b97602087013597506040870135966060810135965060800135945092505050565b6020808252600990820152683737ba1037bbb732b960b91b604082015260600190565b60006101208083016040808986378085018860005b6002811015610fa057838284379183019190830190600101610f83565b505050808760c08701375061010084019190915283519081905261014083019060209081860160005b82811015610fe557815185529383019390830190600101610fc9565b50929998505050505050505050565b60006020828403121561100657600080fd5b8151610ed481610edb565b634e487b7160e01b600052601160045260246000fd5b81810381811115610e2457610e24611011565b80820180821115610e2457610e24611011565b8082028115828204841417610e2457610e24611011565b634e487b7160e01b600052603260045260246000fdfea2646970667358221220b02c761143a406dae3eaa72277cc01e91c5bcf4bd0a3ad6d6405821a1cd4db5664736f6c63430008180033",
  "linkReferences": {},
  "deployedLinkReferences": {}
}