{"contracts/Verifier.sol":{"Groth16Verifier":{"abi":[{"inputs":[{"internalType":"uint256[2]","name":"_pA","type":"uint256[2]"},{"internalType":"uint256[2][2]","name":"_pB","type":"uint256[2][2]"},{"internalType":"uint256[2]","name":"_pC","type":"uint256[2]"},{"internalType":"uint256[12]","name":"_pubSignals","type":"uint256[12]"}],"name":"verifyProof","outputs":[{"internalType":"bool","name":"","type":"bool"}],"stateMutability":"view","type":"function"}],"evm":{"bytecode":{"linkReferences":{},"object":"608060405234801561001057600080fd5b50610965806100206000396000f3fe608060405234801561001057600080fd5b506004361061002b5760003560e01c80638cbac0fa14610030575b600080fd5b61004361003e3660046108c9565b610057565b604051901515815260200160405180910390f35b60006107ee565b7f30644e72e131a029b85045b68181585d2833e84879b9709143e1f593f0000001811061008f576000805260206000f35b50565b600060405183815284602082015285604082015260408160608360076107d05a03fa9150816100c5576000805260206000f35b825160408201526020830151606082015260408360808360066107d05a03fa915050806100f6576000805260206000f35b5050505050565b7f16b45a1f4aa3b839bc2f4615d9d3a74f3074bb3f4206299502e7ced5953ca1bf85527f15547aab7a1a5834ebbe8a56cc7eb3ad0eb99a27701d6804261737138969874a60208601526000608086018661019a87357f2f75afaf9aa8cfc0e11be39d50a4e1564404171f3272913ee6a3d3c62fbf10ac7f269ebba714d5543f8e1f743f1c902b1d8dc52b0e60afca18d6d7397cc73f16b684610092565b6101ea60208801357f2526939e7eec7faaf403b157b51194ea516525307303b8b5d7f7fc5ec219c8d37f2e4c15e18080de5887d9936c1ef5c5c2c9d0d84600389b464a34aaeb77f8028984610092565b61023a60408801357f201e94f0bf7280b3d6ba8a78dd501ebf835aeeac807a996b0642b25b7ebbeb137f1646b3edec1a13f198ada9d75152986292e7da68eada0ec100b6a2e4763881c784610092565b61028a60608801357f25b0762df5696ab0b7bd971f91d8cd4cbe9f9e7203175c2329be5ae4f3134e4e7f2f6b200ef9529a87e0f56491eb6a1a8d216e8602b7dbf5fc4ec4636fbf2d547c84610092565b6102da60808801357f1110635e17dca03e328c7bf5b37afb79328c1a31ae3ed789344b2d4012bdba9d7f0ab5730769337cba448a5ccdbc9d544e03c1e3616a1f53b7c93e8b511650c82c84610092565b61032a60a08801357f1864a46f750c3dd98b4ce4b77fbaf4996ea80dbb62cfb0aecf1437e803f5b7d67f259c7d5753c175b28b425b55bb128b57147542dfc1b24cbf83c2acbb6d617f7f84610092565b61037a60c08801357f190e6211a7ba9575608cb8eefc353bd03ee82c548359132854291969707027ca7f134f2e454fcb38a28ffd11c24a612e5c3b7d7b7dbe2ad01ff8d81b996d96ca9684610092565b6103ca60e08801357f1046c1cb32a84224da4fc0a8638f869bc09bba05890396e030c91512c1674b487f26b0d0313813e9d1fb6ad820d3b64967fff8644de89fa9138e9198124713af3784610092565b61041b6101008801357f1e5259b5dfc73af148b90fe6a75b3ffe4325cbf2d4caf87c3111b96894ad07d97f0b085be1d9dfc40e1c1c6f4ed8efc477b2582894a9b67d4e372ab9f74a8d03fb84610092565b61046c6101208801357f28ba45400ad3f3754a771c820a98f903fc5446824a174582d762f0380d67cfa67f2042086eb3923d4977a48c6a30267381e330ab4c8b507df168d2369e538019b084610092565b6104bd6101408801357f11ac940a329b0059dfef1cbf9b5e175cdc38239bee0dbbc950d1e82fa359d4f77f148127bb441160931aebad3b6386976ed1d19da043d6c0c3145434690724585a84610092565b61050e6101608801357f23ffe6ed17a510fe249b209ee8e8e8af62edb591b1d9ac481a04929c74b944aa7f1f94391e376c054de4754ede0af6ac812808517d5f19a636df0eb04eadc6cee684610092565b50823581527f30644e72e131a029b85045b68181585d97816a916871ca8d3c208c16d87cfd4760208401357f30644e72e131a029b85045b68181585d97816a916871ca8d3c208c16d87cfd4703066020820152833560408201526020840135606082015260408401356080820152606084013560a08201527f2a2f56a768fac7e2e9927ba165dc7e1261bf5570c045f422b753d09c716ed23760c08201527f01fd79017424fbe1ca053bf3f11a5278e6c488319f1617b51878b3c2ac45bcd660e08201527f11bc53d7442e7c8713b1e4fd86f3819357fb10ebbd2cabaa319653713f92cc496101008201527f012877c79bfb8d234a560c4f8f10811991fbc77c4bba03bfcb49b02736b0ed586101208201527f10c2921bba331846df84a342a379ad98624d5dd13785428625523cab2a3dc7416101408201527f0a88586cb7372c086f593e0236a0c5f65ed40d99f0f4a520ce1977887500b10e610160820152600087015161018082015260206000018701516101a08201527f198e9393920d483a7260bfb731fb5d25f1aa493335a9e71297e485b7aef312c26101c08201527f1800deef121f1e76426a00665e5c4479674322d4f75edadd46debd5cd992f6ed6101e08201527f090689d0585ff075ec9e99ad690c3395bc4b313370b38ef355acdadcd122975b6102008201527f12c85ea5db8c6deb4aab71808dcb408fe3d1e7690c43d37b4ce6cc0166fa7daa610220820152843561024082015260208501356102608201527f131ccd66e2284f7ebd3756a79b454d1c735ceb73e071014436e3a6ac15718a976102808201527f0e1e7b82c816ae0eac7cc2087179adb6527b927d8790a75c974fb444e5d68c4e6102a08201527f0cf8a6ebaaf4243e054120031d5276c50ed4ebaee5fb596f942e5aab3dd430d16102c08201527f08971e428f320699cc70bf077cd76e66b6ddb6ee310d258c487523adb788488b6102e08201526020816103008360086107d05a03fa9051169695505050505050565b6040516103808101604052610806600084013561005e565b610813602084013561005e565b610820604084013561005e565b61082d606084013561005e565b61083a608084013561005e565b61084760a084013561005e565b61085460c084013561005e565b61086160e084013561005e565b61086f61010084013561005e565b61087d61012084013561005e565b61088b61014084013561005e565b61089961016084013561005e565b6108a6818486888a6100fd565b90508060005260206000f35b80604081018310156108c357600080fd5b92915050565b6000806000806102808086880312156108e157600080fd5b6108eb87876108b2565b945060c08601878111156108fe57600080fd5b60408701945061090e88826108b2565b93505086818701111561092057600080fd5b5092959194509261010001915056fea2646970667358221220b0609e7fa39041133ba257c5379aec2faa4948bbcef6b190c5d6546b67e4eb6d64736f6c63430008180033","opcodes":"PUSH1 0x80 PUSH1 0x40 MSTORE CALLVALUE DUP1 ISZERO PUSH2 0x10 JUMPI PUSH1 0x0 DUP1 REVERT JUMPDEST POP PUSH2 0x965 DUP1 PUSH2 0x20 PUSH1 0x0 CODECOPY PUSH1 0x0 RETURN INVALID PUSH1 0x80 PUSH1 0x40 MSTORE CALLVALUE DUP1 ISZERO PUSH2 0x10 JUMPI PUSH1 0x0 DUP1 REVERT JUMPDEST POP PUSH1 0x4 CALLDATASIZE LT PUSH2 0x2B JUMPI PUSH1 0x0 CALLDATALOAD PUSH1 0xE0 SHR DUP1 PUSH4 0x8CBAC0FA EQ PUSH2 0x30 JUMPI JUMPDEST PUSH1 0x0 DUP1 REVERT JUMPDEST PUSH2 0x43 PUSH2 0x3E CALLDATASIZE PUSH1 0x4 PUSH2 0x8C9 JUMP JUMPDEST PUSH2 0x57 JUMP JUMPDEST PUSH1 0x40 MLOAD SWAP1 ISZERO ISZERO DUP2 MSTORE PUSH1 0x20 ADD PUSH1 0x40 MLOAD DUP1 SWAP2 SUB SWAP1 RETURN JUMPDEST PUSH1 0x0 PUSH2 0x7EE JUMP JUMPDEST PUSH32 0x30644E72E131A029B85045B68181585D2833E84879B9709143E1F593F0000001 DUP2 LT PUSH2 0x8F JUMPI PUSH1 0x0 DUP1 MSTORE PUSH1 0x20 PUSH1 0x0 RETURN JUMPDEST POP JUMP JUMPDEST PUSH1 0x0 PUSH1 0x40 MLOAD DUP4 DUP2 MSTORE DUP5 PUSH1 0x20 DUP3 ADD MSTORE DUP6 PUSH1 0x40 DUP3 ADD MSTORE PUSH1 0x40 DUP2 PUSH1 0x60 DUP4 PUSH1 0x7 PUSH2 0x7D0 GAS SUB STATICCALL SWAP2 POP DUP2 PUSH2 0xC5 JUMPI PUSH1 0x0 DUP1 MSTORE PUSH1 0x20 PUSH1 0x0 RETURN JUMPDEST DUP3 MLOAD PUSH1 0x40 DUP3 ADD MSTORE PUSH1 0x20 DUP4 ADD MLOAD PUSH1 0x60 DUP3 ADD MSTORE PUSH1 0x40 DUP4 PUSH1 0x80 DUP4 PUSH1 0x6 PUSH2 0x7D0 GAS SUB STATICCALL SWAP2 POP POP DUP1 PUSH2 0xF6 JUMPI PUSH1 0x0 DUP1 MSTORE PUSH1 0x20 PUSH1 0x0 RETURN JUMPDEST POP POP POP POP POP JUMP JUMPDEST PUSH32 0x16B45A1F4AA3B839BC2F4615D9D3A74F3074BB3F4206299502E7CED5953CA1BF DUP6 MSTORE PUSH32 0x15547AAB7A1A5834EBBE8A56CC7EB3AD0EB99A27701D6804261737138969874A PUSH1 0x20 DUP7 ADD MSTORE PUSH1 0x0 PUSH1 0x80 DUP7 ADD DUP7 PUSH2 0x19A DUP8 CALLDATALOAD PUSH32 0x2F75AFAF9AA8CFC0E11BE39D50A4E1564404171F3272913EE6A3D3C62FBF10AC PUSH32 0x269EBBA714D5543F8E1F743F1C902B1D8DC52B0E60AFCA18D6D7397CC73F16B6 DUP5 PUSH2 0x92 JUMP JUMPDEST PUSH2 0x1EA PUSH1 0x20 DUP9 ADD CALLDATALOAD PUSH32 0x2526939E7EEC7FAAF403B157B51194EA516525307303B8B5D7F7FC5EC219C8D3 PUSH32 0x2E4C15E18080DE5887D9936C1EF5C5C2C9D0D84600389B464A34AAEB77F80289 DUP5 PUSH2 0x92 JUMP JUMPDEST PUSH2 0x23A PUSH1 0x40 DUP9 ADD CALLDATALOAD PUSH32 0x201E94F0BF7280B3D6BA8A78DD501EBF835AEEAC807A996B0642B25B7EBBEB13 PUSH32 0x1646B3EDEC1A13F198ADA9D75152986292E7DA68EADA0EC100B6A2E4763881C7 DUP5 PUSH2 0x92 JUMP JUMPDEST PUSH2 0x28A PUSH1 0x60 DUP9 ADD CALLDATALOAD PUSH32 0x25B0762DF5696AB0B7BD971F91D8CD4CBE9F9E7203175C2329BE5AE4F3134E4E PUSH32 0x2F6B200EF9529A87E0F56491EB6A1A8D216E8602B7DBF5FC4EC4636FBF2D547C DUP5 PUSH2 0x92 JUMP JUMPDEST PUSH2 0x2DA PUSH1 0x80 DUP9 ADD CALLDATALOAD PUSH32 0x1110635E17DCA03E328C7BF5B37AFB79328C1A31AE3ED789344B2D4012BDBA9D PUSH32 0xAB5730769337CBA448A5CCDBC9D544E03C1E3616A1F53B7C93E8B511650C82C DUP5 PUSH2 0x92 JUMP JUMPDEST PUSH2 0x32A PUSH1 0xA0 DUP9 ADD CALLDATALOAD PUSH32 0x1864A46F750C3DD98B4CE4B77FBAF4996EA80DBB62CFB0AECF1437E803F5B7D6 PUSH32 0x259C7D5753C175B28B425B55BB128B57147542DFC1B24CBF83C2ACBB6D617F7F DUP5 PUSH2 0x92 JUMP JUMPDEST PUSH2 0x37A PUSH1 0xC0 DUP9 ADD CALLDATALOAD PUSH32 0x190E6211A7BA9575608CB8EEFC353BD03EE82C548359132854291969707027CA PUSH32 0x134F2E454FCB38A28FFD11C24A612E5C3B7D7B7DBE2AD01FF8D81B996D96CA96 DUP5 PUSH2 0x92 JUMP JUMPDEST PUSH2 0x3CA PUSH1 0xE0 DUP9 ADD CALLDATALOAD PUSH32 0x1046C1CB32A84224DA4FC0A8638F869BC09BBA05890396E030C91512C1674B48 PUSH32 0x26B0D0313813E9D1FB6AD820D3B64967FFF8644DE89FA9138E9198124713AF37 DUP5 PUSH2 0x92 JUMP JUMPDEST PUSH2 0x41B PUSH2 0x100 DUP9 ADD CALLDATALOAD PUSH32 0x1E5259B5DFC73AF148B90FE6A75B3FFE4325CBF2D4CAF87C3111B96894AD07D9 PUSH32 0xB085BE1D9DFC40E1C1C6F4ED8EFC477B2582894A9B67D4E372AB9F74A8D03FB DUP5 PUSH2 0x92 JUMP JUMPDEST PUSH2 0x46C PUSH2 0x120 DUP9 ADD CALLDATALOAD PUSH32 0x28BA45400AD3F3754A771C820A98F903FC5446824A174582D762F0380D67CFA6 PUSH32 0x2042086EB3923D4977A48C6A30267381E330AB4C8B507DF168D2369E538019B0 DUP5 PUSH2 0x92 JUMP JUMPDEST PUSH2 0x4BD PUSH2 0x140 DUP9 ADD CALLDATALOAD PUSH32 0x11AC940A329B0059DFEF1CBF9B5E175CDC38239BEE0DBBC950D1E82FA359D4F7 PUSH32 0x148127BB441160931AEBAD3B6386976ED1D19DA043D6C0C3145434690724585A DUP5 PUSH2 0x92 JUMP JUMPDEST PUSH2 0x50E PUSH2 0x160 DUP9 ADD CALLDATALOAD PUSH32 0x23FFE6ED17A510FE249B209EE8E8E8AF62EDB591B1D9AC481A04929C74B944AA PUSH32 0x1F94391E376C054DE4754EDE0AF6AC812808517D5F19A636DF0EB04EADC6CEE6 DUP5 PUSH2 0x92 JUMP JUMPDEST POP DUP3 CALLDATALOAD DUP2 MSTORE PUSH32 0x30644E72E131A029B85045B68181585D97816A916871CA8D3C208C16D87CFD47 PUSH1 0x20 DUP5 ADD CALLDATALOAD PUSH32 0x30644E72E131A029B85045B68181585D97816A916871CA8D3C208C16D87CFD47 SUB MOD PUSH1 0x20 DUP3 ADD MSTORE DUP4 CALLDATALOAD PUSH1 0x40 DUP3 ADD MSTORE PUSH1 0x20 DUP5 ADD CALLDATALOAD PUSH1 0x60 DUP3 ADD MSTORE PUSH1 0x40 DUP5 ADD CALLDATALOAD PUSH1 0x80 DUP3 ADD MSTORE PUSH1 0x60 DUP5 ADD CALLDATALOAD PUSH1 0xA0 DUP3 ADD MSTORE PUSH32 0x2A2F56A768FAC7E2E9927BA165DC7E1261BF5570C045F422B753D09C716ED237 PUSH1 0xC0 DUP3 ADD MSTORE PUSH32 0x1FD79017424FBE1CA053BF3F11A5278E6C488319F1617B51878B3C2AC45BCD6 PUSH1 0xE0 DUP3 ADD MSTORE PUSH32 0x11BC53D7442E7C8713B1E4FD86F3819357FB10EBBD2CABAA319653713F92CC49 PUSH2 0x100 DUP3 ADD MSTORE PUSH32 0x12877C79BFB8D234A560C4F8F10811991FBC77C4BBA03BFCB49B02736B0ED58 PUSH2 0x120 DUP3 ADD MSTORE PUSH32 0x10C2921BBA331846DF84A342A379AD98624D5DD13785428625523CAB2A3DC741 PUSH2 0x140 DUP3 ADD MSTORE PUSH32 0xA88586CB7372C086F593E0236A0C5F65ED40D99F0F4A520CE1977887500B10E PUSH2 0x160 DUP3 ADD MSTORE PUSH1 0x0 DUP8 ADD MLOAD PUSH2 0x180 DUP3 ADD MSTORE PUSH1 0x20 PUSH1 0x0 ADD DUP8 ADD MLOAD PUSH2 0x1A0 DUP3 ADD MSTORE PUSH32 0x198E9393920D483A7260BFB731FB5D25F1AA493335A9E71297E485B7AEF312C2 PUSH2 0x1C0 DUP3 ADD MSTORE PUSH32 0x1800DEEF121F1E76426A00665E5C4479674322D4F75EDADD46DEBD5CD992F6ED PUSH2 0x1E0 DUP3 ADD MSTORE PUSH32 0x90689D0585FF075EC9E99AD690C3395BC4B313370B38EF355ACDADCD122975B PUSH2 0x200 DUP3 ADD MSTORE PUSH32 0x12C85EA5DB8C6DEB4AAB71808DCB408FE3D1E7690C43D37B4CE6CC0166FA7DAA PUSH2 0x220 DUP3 ADD MSTORE DUP5 CALLDATALOAD PUSH2 0x240 DUP3 ADD MSTORE PUSH1 0x20 DUP6 ADD CALLDATALOAD PUSH2 0x260 DUP3 ADD MSTORE PUSH32 0x131CCD66E2284F7EBD3756A79B454D1C735CEB73E071014436E3A6AC15718A97 PUSH2 0x280 DUP3 ADD MSTORE PUSH32 0xE1E7B82C816AE0EAC7CC2087179ADB6527B927D8790A75C974FB444E5D68C4E PUSH2 0x2A0 DUP3 ADD MSTORE PUSH32 0xCF8A6EBAAF4243E054120031D5276C50ED4EBAEE5FB596F942E5AAB3DD430D1 PUSH2 0x2C0 DUP3 ADD MSTORE PUSH32 0x8971E428F320699CC70BF077CD76E66B6DDB6EE310D258C487523ADB788488B PUSH2 0x2E0 DUP3 ADD MSTORE PUSH1 0x20 DUP2 PUSH2 0x300 DUP4 PUSH1 0x8 PUSH2 0x7D0 GAS SUB STATICCALL SWAP1 MLOAD AND SWAP7 SWAP6 POP POP POP POP POP POP JUMP JUMPDEST PUSH1 0x40 MLOAD PUSH2 0x380 DUP2 ADD PUSH1 0x40 MSTORE PUSH2 0x806 PUSH1 0x0 DUP5 ADD CALLDATALOAD PUSH2 0x5E JUMP JUMPDEST PUSH2 0x813 PUSH1 0x20 DUP5 ADD CALLDATALOAD PUSH2 0x5E JUMP JUMPDEST PUSH2 0x820 PUSH1 0x40 DUP5 ADD CALLDATALOAD PUSH2 0x5E JUMP JUMPDEST PUSH2 0x82D PUSH1 0x60 DUP5 ADD CALLDATALOAD PUSH2 0x5E JUMP JUMPDEST PUSH2 0x83A PUSH1 0x80 DUP5 ADD CALLDATALOAD PUSH2 0x5E JUMP JUMPDEST PUSH2 0x847 PUSH1 0xA0 DUP5 ADD CALLDATALOAD PUSH2 0x5E JUMP JUMPDEST PUSH2 0x854 PUSH1 0xC0 DUP5 ADD CALLDATALOAD PUSH2 0x5E JUMP JUMPDEST PUSH2 0x861 PUSH1 0xE0 DUP5 ADD CALLDATALOAD PUSH2 0x5E JUMP JUMPDEST PUSH2 0x86F PUSH2 0x100 DUP5 ADD CALLDATALOAD PUSH2 0x5E JUMP JUMPDEST PUSH2 0x87D PUSH2 0x120 DUP5 ADD CALLDATALOAD PUSH2 0x5E JUMP JUMPDEST PUSH2 0x88B PUSH2 0x140 DUP5 ADD CALLDATALOAD PUSH2 0x5E JUMP JUMPDEST PUSH2 0x899 PUSH2 0x160 DUP5 ADD CALLDATALOAD PUSH2 0x5E JUMP JUMPDEST PUSH2 0x8A6 DUP2 DUP5 DUP7 DUP9 DUP11 PUSH2 0xFD JUMP JUMPDEST SWAP1 POP DUP1 PUSH1 0x0 MSTORE PUSH1 0x20 PUSH1 0x0 RETURN JUMPDEST DUP1 PUSH1 0x40 DUP2 ADD DUP4 LT ISZERO PUSH2 0x8C3 JUMPI PUSH1 0x0 DUP1 REVERT JUMPDEST SWAP3 SWAP2 POP POP JUMP JUMPDEST PUSH1 0x0 DUP1 PUSH1 0x0 DUP1 PUSH2 0x280 DUP1 DUP7 DUP9 SUB SLT ISZERO PUSH2 0x8E1 JUMPI PUSH1 0x0 DUP1 REVERT JUMPDEST PUSH2 0x8EB DUP8 DUP8 PUSH2 0x8B2 JUMP JUMPDEST SWAP5 POP PUSH1 0xC0 DUP7 ADD DUP8 DUP2 GT ISZERO PUSH2 0x8FE JUMPI PUSH1 0x0 DUP1 REVERT JUMPDEST PUSH1 0x40 DUP8 ADD SWAP5 POP PUSH2 0x90E DUP9 DUP3 PUSH2 0x8B2 JUMP JUMPDEST SWAP4 POP POP DUP7 DUP2 DUP8 ADD GT ISZERO PUSH2 0x920 JUMPI PUSH1 0x0 DUP1 REVERT JUMPDEST POP SWAP3 SWAP6 SWAP2 SWAP5 POP SWAP3 PUSH2 0x100 ADD SWAP2 POP JUMP INVALID LOG2 PUSH5 0x6970667358 0x22 SLT KECCAK256 0xB0 PUSH1 0x9E PUSH32 0xA39041133BA257C5379AEC2FAA4948BBCEF6B190C5D6546B67E4EB6D64736F6C PUSH4 0x43000818 STOP CALLER "},"methodIdentifiers":{"verifyProof(uint256[2],uint256[2][2],uint256[2],uint256[12])":"8cbac0fa"}}}}}